:100000000C9467070C94AE070C94AE070C94AE07E3
:100010000C94AE070C94AE070C94AE070C94AE078C
:100020000C94AE070C94AE070C94EA2C0C94BC2DE7
:100030000C94A2230C94AE070C94AE070C94AE075C
:100040000C94AE070C94AE070C94AE070C94AE075C
:100050000C94AE070C940A240C94AE070C94AE07D3
:100060000C94AE070C94AE070C94AE070C94AE073C
:100070000C94AE070C94AE070C94AE070C94AE072C
:100080000C94AE070C94AE070C94AE070C94AE071C
:100090000C94AE070C94AE070C94AE070C94AE070C
:1000A0000C94AE070C94AE070C94AE07C011C311AC
:1000B000CB11D011D511DA11DF11E411E911EE11D4
:1000C000F311F811FA11FD110012031206120912B0
:1000D0000B121012C118C118F318F31840195E1949
:1000E000B61AB61AA019351A461A461AA61AB61A18
:1000F000B61AAF1A4B1B4B1B5D1B5D1B541B5D1BC4
:100100005D1B5D1B4B1B4B1B591B5D1B5D1B591B5B
:10011000292E502E482F502E482F9C2EBF2E482F70
:10012000162F252FE000E300E20051005000025896
:100130002C000158E600E10064001D001B000600D1
:1001400019000500110010000251040016000700FC
:1001500009000A000B000D000E002B0014001A000D
:100160000800150017001C0018000C0035001E00C8
:100170001F00200021002200230024002500290068
:100180003A003B003C003D003E003F004000410083
:100190005800630062004C00560000004F00000051
:1001A000000058005B005A005200E500380059007A
:1001B0003700360057005E005D000000310034005B
:1001C0005C0033000F005700610060002800300021
:1001D0002F005F001300120055005400530031003F
:1001E0002E002D002A00270026004E004B004D0057
:1001F0004900450044004A0043004200000000005E
:1002000000000000000001000000010000000100EB
:10021000000000000000000000002602270200008D
:1002200000001E001F0020002100220023002400E7
:10023000250000000000000000002F022F00300009
:10024000300200000000000000000000000000007C
:10025000000000000000000000000000000000009E
:10026000000000000000000000000000000000008E
:10027000000000000000000000000000000000007E
:10028000000000000000000000000000000000006E
:100290000000000000000000000027002600000011
:1002A000000000000000000000000000000000004E
:1002B000000000000000000000000000000000003E
:1002C000000000000000000000000000000000002E
:1002D00000000000010001000100AA00AC000100C4
:1002E000AE00000000000100010001000100390023
:1002F0000000260227026500010000002A004C00D1
:100300004A004D0050005100520001000000000062
:1003100029002F022F00300030022D0001000000C4
:1003200000000000000000000000000000000000CD
:1003300000000000000000000000000000000000BD
:1003400000000000A800000000000000AB0000005A
:100350000000000000000000A900000000000000F4
:10036000BB00BC0000000000000000000000000016
:1003700000002A004F000000000000000000000004
:100380000000000046000000000000000000000027
:10039000000000000000000000000000000000005D
:1003A000000000000000000000000000010001004B
:1003B0000100010001000100010001000100010035
:1003C0000100010001000100010001000100010025
:1003D0000100010001000100010001000100010015
:1003E0000100010001000100010001000100010005
:1003F00001000100010001000100010001000100F5
:1004000001000100010001000100010001000100E4
:1004100001000100010001000100010001000100D4
:1004200001000000010000000000010001000100C7
:1004300001000100010001000100010001000100B4
:1004400001000000010001000100010001000100A5
:100450000100010001000100010001000100010094
:100460000100010001000100010001000100010084
:100470000100010001000100010001000100010074
:100480000100010001000100010001000100010064
:100490000100010001000100010001000100010054
:1004A0000100010001000100010001000100010044
:1004B0000100010001000100010001000100010034
:1004C0000100010001000100010001000100010024
:1004D0000100010001000100010001000100010014
:1004E0000100010001000100010001000100010004
:1004F00001000100010001000100000001000000F6
:1005000000000100010001000100010001000100E4
:1005100001000100010001000100000001000100D4
:1005200001000100010001000100010001000100C3
:1005300001000100010001000100010001000100B3
:1005400001000100010001000100010001000100A3
:100550000100010001000100010001000100010093
:100560000100010001000100010001000100010083
:100570000100010001000100010001000100010073
:100580000100010001000100010001000100010063
:100590000100010001000100010001000100010053
:1005A0000100010001000100010001000100010043
:1005B0000100010001000100010001000100010033
:1005C0000100010001000100010001000100010023
:1005D0000100000001000000000001000100010016
:1005E0000100010001000100010001000100010003
:1005F00001000000010001000100010001000100F4
:1006000001000100010001000100010001000100E2
:1006100001000100010001000100010001000100D2
:1006200001000100010001000100010001000100C2
:1006300001000100010001000100010001000100B2
:1006400001000100010001000100010001000100A2
:100650000100010001000100010001000100010092
:100660000100010001000100010001000100010082
:100670000100010001000100010001000100010072
:100680000100010001000100010001000100010062
:100690000100010001000100010001000100010052
:1006A0000100010001000100010000000100000044
:1006B0000000010001000100010001000100010033
:1006C0000100010001000100010000000100010023
:1006D0000100010001000100010001000100010012
:1006E0000100010001000100010001000100010002
:1006F00001000100010001000100010001000100F2
:1007000001000100010001000100010001000100E1
:1007100001000100010001000100010001000100D1
:1007200001000100010001000100010001000100C1
:1007300001000100010001000100010001000100B1
:1007400001000100010001000100010001000100A1
:100750000100010001000100010001000100010091
:100760000100010001000100010001000100010081
:100770000100010001000100010001000100010071
:100780000100000001000000000001000100010064
:100790000100010001000100010001000100010051
:1007A0000100000001000100010001000100010042
:1007B0000100010001000100010001000100010031
:1007C0000100010001000100010001000100010021
:1007D0000100010001000100010001000100010011
:1007E0000100010001000100010001000100010001
:1007F00001000100010001000100010001000100F1
:1008000001000100010001000100010001000100E0
:1008100001000100010001000100010001000100D0
:1008200001000100010001000100010001000100C0
:1008300001000100010001000100010001000100B0
:1008400001000100010001000100010001000100A0
:100850000100010001000100010000000100000092
:100860000000010001000100010001000100010081
:100870000100010001000100010000000100010071
:100880000100010001000100010001000100010060
:100890000100010001000100010001000100010050
:1008A0000100010001000100010001000100010040
:1008B0000100010001000100010001000100010030
:1008C0000100010001000100010001000100010020
:1008D0000100010001000100010001000100010010
:1008E0000100010001000100010001000100010000
:1008F00001000100010001000100010001000100F0
:1009000001000100010001000100010001000100DF
:1009100001000100010001000100010001000100CF
:1009200001000100010001000100010001000100BF
:1009300001000000010000000000010001000100B2
:10094000010001000100010001000100010001009F
:100950000100000001000100010001000100010090
:10096000010001000100010001000100010001007F
:10097000010001000100010001000100010001006F
:10098000010001000100010001000100010001005F
:10099000010001000100010001000100010001004F
:1009A000010001000100010001000100010001003F
:1009B000010001000100010001000100010001002F
:1009C000010001000100010001000100010001001F
:1009D000010001000100010001000100010001000F
:1009E00001000100010001000100010001000100FF
:1009F00001000100010001000100010001000100EF
:100A000001000100010001000100000001000000E0
:100A100000000100010001000100010001000100CF
:100A200001000100010001000100000001000100BF
:100A300001000100010001000100010001000100AE
:100A4000010001000100010001000100010001009E
:100A5000010001000100010001000100010001008E
:100A60000100010001000100010001000000000080
:100A70000000000000000000000001000000000075
:100A80000000000000000000000000000000000066
:100A90000000000000000000000000000000000056
:100AA0000000000000000000000000000000000046
:100AB0000000000000000000000000000000000036
:100AC0000000000000000000000000000000000026
:100AD0000000000000000000000000000000000016
:100AE0000000000000000000000000000000000006
:100AF00000000000000000000000000000000000F6
:100B000000000000000000000000000000000000E5
:100B100000000000000000000000000000000000D5
:100B200000000000000000000000000000000000C5
:100B300000000000000000000000000000000000B5
:100B40000000000000047F3F1F64321464321478F8
:100B50003C1E1E140A052223252628292A2C2D2F67
:100B60003032333536383A3B3D3E404243454749C3
:100B70004A4C4E5051535557595A5C5E60626466F8
:100B800068696B6D6F71737577797B7D7F81838504
:100B900087898A8C8E90929496989A9C9E9FA1A306
:100BA000A5A7A8AAACAEAFB1B3B4B6B8B9BBBCBE2A
:100BB000BFC1C2C3C5C6C7C9CACBCCCDCED0D1D2A6
:100BC000D2D3D4D5D6D7D7D8D9D9DADADBDBDBDCA8
:100BD000DCDCDCDCDDDDDDDDDCDCDCDCDCDBDBDB54
:100BE000DADAD9D9D8D7D7D6D5D4D3D2D2D1D0CEB4
:100BF000CDCCCBCAC9C7C6C5C3C2C1BFBEBCBBB9B9
:100C0000B8B6B4B3B1AFAEACAAA8A7A5A3A19F9E36
:100C10009C9A98969492908E8C8A89878583817FFE
:100C20007D7B79777573716F6D6B696866646260DF
:100C30005E5C5A5957555351504E4C4A49474543AB
:100C400042403E3D3B3A3836353332302F2D2C2A48
:100C5000292826252322FFAA7F55400001010101F2
:100C60000101010101020202020202020202030367
:100C70000303030303030404040404040405050537
:100C800005050606060606070707070708080808F9
:100C9000090909090A0A0A0B0B0B0C0C0C0D0D0DA6
:100CA0000E0E0E0F0F0F101011111112121313143C
:100CB00014151516161717181819191A1A1B1B1CB4
:100CC0001D1D1E1E1F20202122222324242526260E
:100CD000272829292A2B2C2D2D2E2F303132323343
:100CE0003435363738393A3B3C3D3E3F404142434C
:100CF0004445464748494A4C4D4E4F505153545530
:100D00005658595A5B5D5E5F616264656668696BDF
:100D10006C6D6F7072737577787A7B7D7E8082835D
:100D20008587888A8C8E8F91939596989A9C9EA0A1
:100D3000A2A3A5A7A9ABADAFB1B3B5B7BABCBEC0AE
:100D4000C2C4C6C9CBCDCFD1D4D6D8DBDDDFE2E477
:100D5000E7E9EBEEF0F3F5F8FAFDFF0403300000ED
:100D60000012034D0065006C006F006400790039CB
:100D700000360000000A0359004D0044004B0000FB
:100D8000000403090409023B00020100A0FA09045F
:100D900000000103010100092111010001224000AE
:100DA0000705810308000A0904010001030000008F
:100DB00009211101000122BC000705820320000A5D
:100DC0001201100100000008EDFE60600100010248
:100DD000030105010902A10185020901A10005091C
:100DE0001901290515002501950575018102950157
:100DF000750381010501093009311581257F9502AF
:100E00007508810609381581257F950175088106C9
:100E1000050C0A38021581257F950175088106C0E9
:100E2000C005010980A101850319012AB700150138
:100E300026B700950175108100C0050C0901A101BC
:100E4000850419012AA002150126A002950175103A
:100E50008100C005010906A1018505050719E029E2
:100E6000E71500250195087501810205071900297C
:100E7000EF1500250195F07501810205081901297A
:100E800005950575019102950175039101C0050154
:100E90000906A101050719E029E7150025019508B4
:100EA000750181029501750881010507190029FF67
:100EB000150026FF0095067508810005081901290F
:100EC00005950575019102950175039101C01124E5
:100ED0001FBECFEFDAE0DEBFCDBF04B603FE27C0F2
:100EE0008091560390915703A0915803B0915903F4
:100EF0008730904BA740B04BD1F41092560310921C
:100F00005703109258031092590314BE84B7877F79
:100F100084BF0FB6F894A895809160008861809393
:100F20006000109260000FBEE0E0F8E3099511E068
:100F3000A0E0B1E0EEECF0E602C005900D92A23C1C
:100F4000B107D9F723E0A2ECB1E001C01D92A635AC
:100F5000B207E1F70E94192A0C9465300C94000046
:100F600080FF02C03E9A01C03E98469881FF02C0B1
:100F70003F9A01C03F98479882FF02C0259A01C05E
:100F800025982D980C941C0881E0089581E008951F
:100F90000C94C60708950C94CA071F93CF93DF9350
:100FA00000D000D01F92CDB7DEB749835A836B8340
:100FB0002091F60189819A81211112C0662349F09E
:100FC0000E949B20182F682F89819A810E944420BB
:100FD00003C00E946F20182F69817A81812F04C07D
:100FE0000E949B2069817A810F900F900F900F9043
:100FF0000F90DF91CF911F910C948608FC014081E6
:1010000051816281738184810C94CD07CF93DF93EA
:10101000EC010E94FE07BE01DF91CF910C94CB073B
:101020000E94CD21811102C00E9480220E948B1358
:101030000C94A50A0C94A10A089581E008950C94DB
:101040001D08CF93C82F0E94B0078C2F0E941F0845
:10105000CF91089508950E94391B0E942A082FEF0E
:1010600084E39CE0215080409040E1F700C0000004
:101070000C9430240F931F93CF93DF93EC010E94C5
:10108000FE078C01BE010E94C8078823A9F1BE019A
:10109000C8010E94F412882379F1BE01C8010E94A0
:1010A0004E14882349F1BE01C8010E948F14882381
:1010B00019F1BE01C8010E94BA158823E9F0BE01EA
:1010C000C8010E94A9118823B9F08A81882369F098
:1010D00001158CE5180731F00E3D1C4531F40E94D6
:1010E00080220AC00E942B0807C0CE01DF91CF9159
:1010F0001F910F910C94C40780E0DF91CF911F9155
:101100000F91089580E090E0089508952CE6829F65
:10111000C0011124FC0129E0729FE00DF11D112492
:10112000E60FF11DEE0FFF1FEC5DFE4F85919491D0
:101130000895880F991FFC01EC5BF44F8591949101
:101140000895CF93DF930E9486080E94B909EC01AD
:101150008115904508F041C0C11580E4D80708F01A
:10116000D1C0C83ED10510F5C03ED10508F0FDC084
:10117000C83AD10578F4C53AD10508F0A2C0C1300B
:10118000D10509F4F2C008F4EEC0C430D10508F06E
:10119000ECC0E9C0CF3BD10508F49BC0C03CD105F1
:1011A00008F4E1C0CE01805C91099EC0C11590E2B7
:1011B000D90758F4C11521E0D20708F0D6C0C03FC6
:1011C000D10508F4D0C0D065D0C0C11580E3D807E0
:1011D00008F08EC0CE019F7087C0C11595E5D90774
:1011E00008F043C0C11524E5D20708F0A2C0C1151C
:1011F00082E5D80708F5C11591E5D90708F085C043
:10120000CE0174E0969587957A95E1F783709C2FCF
:10121000937021E030E002C0220F331F9A95E2F76D
:101220003C68382BCF70C695C69580E2C89FE00118
:101230001124C22BD32B99C09E01237033278C2FEE
:1012400086958695C115D34508F064C0C1E0D0E00D
:1012500002C0CC0FDD1F2A95E2F720E2829FC00179
:101260001124C82BD92BDC6880C0C11529E5D20711
:10127000A0F4C11588E5D80708F060C0C11596E54F
:10128000D90708F070C08C2F0E944D0A8F71C82FAB
:10129000D0E0DC2FCC27D06268C0C1152AE5D20788
:1012A00008F451C0CE0190568115904208F05BC001
:1012B0008D2F8F710E944D0ADD27D0628F71D82B40
:1012C00054C0C55AD0E0CD5ADE4FC881D0E0D064BA
:1012D0004CC0C85AD0E0CC0FDD1FCB5DDE4F09906B
:1012E000D881C02DD46441C00E949908EC013DC052
:1012F000CE019927D3FF03C0EC01D86C36C0EC01B6
:10130000D06C33C0DF70D06A30C0DC2FCC27C16F07
:10131000D06A2BC0C1E0D0E002C0CC0FDD1F2A95FF
:10132000E2F720E2829FC0011124C82BD92BDA6892
:101330001CC0DC2FCC27C46FD06A17C0DC2FCC2791
:10134000C06FD06A12C08C2F8F700E944D0A94E03B
:10135000D695C7959A95E1F7CF70D0E0DC2FCC27D2
:10136000D069C82B02C0C0E0D0E0CE01DF91CF91A0
:1013700008958238910569F1B0F48133910509F43B
:101380006DC048F48932910509F463C08A32910531
:1013900009F469C008958533910509F455C089336E
:1013A0009105B9F00895833E910569F138F4803EC6
:1013B0009105B1F0823E910509F10895863E9105AF
:1013C000A9F1873E9105B9F1843E910509F064C009
:1013D00023C02091470320FD4FC021FD4DC008953B
:1013E0008091470380FD44C08091480380FF44C042
:1013F0008091470384FD42C083EE4DC08091470336
:1014000082FF38C0F5CF8091470382FD33C08091C1
:10141000480380FD31C0ECCF8091480381FF32C08A
:101420008091470384FD2AC087EE35C08091470331
:1014300083FF26C0F5CF8091470383FD21C08091B3
:10144000480381FD1FC0ECCF8091470385FD1CC080
:101450001DC08091470385FD19C016C080914703C8
:1014600086FD16C017C08091470386FD13C010C0CB
:1014700089E311C082EE0FC080EE0DC080E00BC08A
:1014800086EE09C084EE07C089E205C085E303C08B
:101490008AE201C081E390E008959091470392FFB2
:1014A0000DC0282F2871283019F4877F846006C06A
:1014B000282F2471243011F48B7F886093FF0DC096
:1014C000282F2871283119F4877E846106C0282FBF
:1014D0002471243111F48B7E88612091480320FF10
:1014E0000DC0382F3871383019F4877F816006C0FD
:1014F000382F3171313011F48E7F886021FF0DC09B
:10150000282F2871283119F4877E816106C0282F81
:101510002171213111F48E7E886194FD877E0895BA
:10152000E82FF0E0EE0FFF1FE351FD4F8081918126
:101530000895089580EA8A95F1F7089508950C9426
:101540009E0A0C949F0A0C949E0A0C94A30ACF93B3
:10155000DF93A6E5B1E04FE551E061E070E08D91E9
:10156000E82FE295EF70F0E021A18F70EB0102C04F
:10157000CC0FDD1F8A95E2F7CE019C2F9095922328
:1015800091A392A1892B82A34A175B0741F7AFE58C
:10159000B1E04BE651E061E070E08D91E82FE2951B
:1015A000EF70F0E021A18F70EB0102C0CC0FDD1FC6
:1015B0008A95E2F7CE019C2F9095922391A392A158
:1015C000892B82A34A175B0741F7E5EDF2E0ADEE08
:1015D000B2E08DEE92E0119211921D921D928E1743
:1015E0009F07C9F78CE00E94A90BDF91CF910C9463
:1015F00010082F923F924F925F926F927F928F923C
:101600009F92AF92BF92CF92DF92EF92FF920F9391
:101610001F93CF93DF9300D000D0CDB7DEB786E520
:10162000C82E81E0D82EE12CF12C10E0AA24A3943E
:10163000B12C2DEE422E22E0522ED6018D916D015D
:10164000B82FB295BF70EB2FF0E0FC83EB8391A134
:101650008F70450101C0880C8A95EAF7892F882987
:1016600081A382A1382C3094832182A30E949A0AFC
:10167000A5010E2C02C0440F551F0A94E2F73A014F
:10168000609470942FE531E03A832983E5EDF2E030
:10169000212CBF0180819181A981BA810D91BA83EA
:1016A000A983202F22952F7030E0D90190962C919C
:1016B00030E00F7002C0359527950A95E2F720FDBE
:1016C00004C09C01242B352B03C09C01262137210B
:1016D000318320833296DB012D913C918217930751
:1016E00011F0222423944E165F0699F6EB81FC81BB
:1016F00081A1382231A282A1882A82A21229FFEF79
:10170000EF1AFF0A29E0E216F10409F096CF212F23
:101710004CE06DEE72E085ED92E00E94AA0B0E9413
:101720001A08812F0F900F900F900F90DF91CF919B
:101730001F910F91FF90EF90DF90CF90BF90AF90EF
:101740009F908F907F906F905F904F903F902F90E1
:1017500008950895FF920F931F93CF93DF93F82E70
:10176000092F162FD72FC42F222349F081E0809311
:10177000C4010E94D4239093C3018093C20180913D
:10178000C4018823D9F08091C2019091C3010E94C5
:10179000E023069798F0EF2DF02FA12FBD2F80E0CA
:1017A00090E04C2F50E08417950734F4219131914B
:1017B0002D933D930196F7CF1092C401DF91CF9105
:1017C0001F910F91FF900895EF92FF920F931F9337
:1017D000CF93DF93F62E472FE82FF0E0711106C06C
:1017E000E55AF34F6491762F862F72C0272F30E091
:1017F000E55AF34FE4910E2F10E056E0659FC001CB
:101800001124CFEFD0E0BE010E949A2F5BEA56036D
:10181000C001579F900D11248F0D911D8F0D911DAB
:10182000982F990F890F7E01E21AF30AE09ED001EA
:10183000E19EB00DF09EB00D1124489FA00111242F
:10184000452F55277E01E41AF50AE09EA001E19E8E
:10185000500DF09E500D11247E01E81AF108E29E11
:10186000C001E39E900DF29E900D1124892F9927BF
:10187000C81BD90BC09FC001C19F900DD09F900D78
:1018800011246230710591F048F461157105E1F0A1
:1018900061307105A9F48B2F752F19C06430710563
:1018A00061F038F06630710579F00AC0892F7B2F1E
:1018B0000EC08E2F7B2FE52F0AC08E2F792F02C0EE
:1018C000852F7E2FEB2F03C08B2F7E2FE92F6E2FBE
:1018D000DF91CF911F910F91FF90EF9008950895A0
:1018E000CF93DF93762FE901682F842F0E94E40BBA
:1018F000798368838A83DF91CF910895809105036E
:10190000282F269530E02115310519F48170826069
:1019100005C02532310524F0817088648093050369
:10192000089588E090E00C942530CF92DF92EF92FA
:10193000FF926B017C010E947E0CB701A60188E03A
:1019400090E0FF90EF90DF90CF900C944330E5E073
:10195000F3E083E0808311828FEF8283838314829C
:1019600060817181828193810C94950C8091050333
:1019700080FF02C08695089580E008958091090354
:10198000833018F48F5F8093090360910503709191
:10199000060380910703909108030C94950C8091A5
:1019A0000903882319F0815080930903609105038E
:1019B0007091060380910703909108030C94950C95
:1019C0006091040170E08091050380FF0AC080915E
:1019D000C90123E0829FC0011124865F9C4F0C94B3
:1019E000D7138091C80190910301891780F7E82FE0
:1019F000F0E09F01220F331FE20FF31FE65FFC4F61
:101A00001182108212828F5FF0CF9091050390FFB8
:101A100016C09091C80120910301921770F4E92F2C
:101A2000F0E0DF01AA0FBB1FEA0FFB1FE65FFC4FD0
:101A30008183608342839F5FF0CF0C94E00C089514
:101A4000CF93DF9300D01F92CDB7DEB790910503FF
:101A500090FF0AC09E012F5F3F4F0E94700C4B8188
:101A600069818A810E94050D0F900F900F90DF9180
:101A7000CF910895CF93DF93EC01EC81F0E0EA5A27
:101A8000F44F4491E5E0F3E0628181810E94200DF2
:101A90008C818F5F8C83DF91CF910895CF93DF93FB
:101AA000EC01E5E0F3E0438162818C810E94200D2E
:101AB0008C818F5F8C83DF91CF9108950F931F935B
:101AC000CF93DF9300D01F92CDB7DEB78C0180910A
:101AD000C50181110AC09E012F5F3F4F4FEF6FEF8D
:101AE0000E94700C8A818093C501F8018481813045
:101AF00051F028F0823061F44091C5010AC0809114
:101B0000C50140E007C06091C50140E080E003C02E
:101B100040E080E060E00E94050DF801848190E0E3
:101B2000019663E070E00E94AE2F84830F900F90C7
:101B30000F90DF91CF911F910F910895AF92BF92B7
:101B4000CF92DF92EF92FF920F931F93CF93DF9389
:101B500000D01F92CDB7DEB7182FF62E042FE22E3D
:101B60009091050390FF6DC0E92FE695AE2FB0E090
:101B7000A559BE4F8C918093D1019E7F923061F424
:101B80009E012F5F3F4F812F0E94700C4B81698116
:101B90008A810E94050D43C0823019F40091080328
:101BA0003EC0863019F41091060339C08930D9F34C
:101BB0008931A9F5E9518E2F8170D82EE695F0E094
:101BC000EA5AF34FA590B490C12CBB246091020156
:101BD000C61618F52C2D30E0A29EC001A39E900DD4
:101BE000B29E900D112470E00E949A2F812FD11087
:101BF00002C0860F01C0861B9091C801290F311DBC
:101C0000A901440F551F240F351F265F3C4F402F5D
:101C10006F2D0E94700CC394D9CF0E94E00C1093DA
:101C20000603F092070300930803EE2051F0609141
:101C300005037091060380910703909108030E94A9
:101C4000950C0F900F900F90DF91CF911F910F91F6
:101C5000FF90EF90DF90CF90BF90AF900895E5E0B8
:101C6000F3E09181282F4381628188E0890F0C94F1
:101C70009E0D81E00C942F0EE5E0F3E09181282F7A
:101C80004381628188EF890F0C949E0D81E00C9452
:101C90003C0EE5E0F3E0628128E0620F08F46FEFAC
:101CA000282F438181810C949E0D81E00C94490E74
:101CB000E5E0F3E0628128E0621B08F460E0282F91
:101CC000438181810C949E0D81E00C94580EE5E0D7
:101CD000F3E0438128E0420F08F44FEF282F6281A0
:101CE00081810C949E0D81E00C94670EE5E0F3E099
:101CF000438128E0421B08F440E0282F6281818163
:101D00000C949E0D81E00C94760E20E00C949E0DB8
:101D1000FF920F931F93CF93DF93EC01F12C0FEF02
:101D200010E060910201F616F0F48091C8012F2DA9
:101D300030E0280F311DC901880F991F280F391F66
:101D4000265F3C4F70E0C8010E94AE2F962F8C8119
:101D50004091080360910703F99E800D11240E94B1
:101D6000700CF394DECF0E94E00C9A818C8190FF7E
:101D700002C08F5F01C081508C83DF91CF911F9192
:101D80000F91FF900895AF92BF92CF92DF92EF92A2
:101D9000FF920F931F93CF93DF93FC01828180FF0B
:101DA00002C00FEF01C001E010E042E1A42E8091DB
:101DB0000201181708F043C08091C801C12ED12C30
:101DC000E601C80FD11DCE01880F991FC80FD91F7A
:101DD000C65FDC4F198218821A8234E0E32EF12CA0
:101DE000B12C8091C7018B0D83312CF06A2D0E949C
:101DF0008C2F892F05C087FF03C090910201890FA6
:101E0000082E000C990BC816D90691F4809108038E
:101E10008E9DA0018F9D500D112455954795559588
:101E200047959E0160910703809106030E94700C04
:101E3000B00EF1E0EF1AF108A1F61F5FB8CF0E94D3
:101E4000E00C8091C701013031F4811102C0809112
:101E50000201815007C090E001966091020170E09C
:101E60000E94AE2F8093C701DF91CF911F910F91F8
:101E7000FF90EF90DF90CF90BF90AF900895CF93F9
:101E80008091C80190910301891770F4E82FF0E068
:101E90009F01220F331FE20FF31FE65FFC4F1182F9
:101EA000108212828F5FF0CFC0E060910201C617EE
:101EB000C0F5EC2FF0E070E0CF010E94AE2F209132
:101EC000C801820F2091C601022E000C330B90E056
:101ED000E217F307CCF020910101022E000C330B26
:101EE0002E173F078CF09C01220F331F820F931F88
:101EF0009C01265F3C4F409108036091070380914D
:101F000006030E94700C0BC0FC01EE0FFF1F8E0F2A
:101F10009F1FFC01E65FFC4F118210821282CF5F8F
:101F2000C4CF0E94E00C209100018091C601820F75
:101F30008093C60190910101920F909301011916AF
:101F40005CF4082E000C990B4091020150E04150C6
:101F50005109841795071CF0219520930001CF911A
:101F600008950F931F93CF93DF938C01FC0184811D
:101F7000958101968170992795838483C0E0D5E58A
:101F800080910201C81700F58091C8012C2F30E024
:101F9000280F311DC901880F991F280F391F265F8F
:101FA0003C4F4C2F4695F80184819581840F911DFB
:101FB000817040910803609107038D9F802D11244B
:101FC0000E94700CCF5FDCCFDF91CF911F910F91FA
:101FD0000C94E00C0F931F93CF93DF93EC0100E080
:101FE00010E080910201282F30E00217130724F53A
:101FF0009091C8019801290F311DA901440F551F67
:10200000240F351F265F3C4F869590E04C810817C2
:1020100019071CF4442331F002C0411103C0409160
:10202000080301C040E060910703809106030E940D
:10203000700C0F5F1F4FD5CF0E94E00C8C8190E099
:102040000196817099278C83DF91CF911F910F9119
:102050000895E5E0F3E080818E7F80836081718167
:10206000828193810E94950C1092D2012FEF80E71C
:1020700092E0215080409040E1F700C000000C94B5
:10208000E00C60910503669570E04BE050E085E060
:1020900091E00E941030892B19F481E08093D201E5
:1020A0000E94D4239093CB018093CA01089590910C
:1020B000050390FF35C09170811102C0926006C087
:1020C000853210F0986402C0880F982B9093050316
:1020D000662351F060910503709106038091070318
:1020E000909108030E94950C60910503669570E03D
:1020F0004BE050E085E091E00E941030892B19F010
:102100001092D20102C00E94411081E08093CD0163
:102110004091080360910703809106030C94850E9B
:102120000895682F90910503969581E0890F853277
:1021300008F081E00C94571081E00C949110682F06
:102140009091050396958FEF890F09F484E20C9422
:10215000571081E00C949F1061E00C945710E5E05B
:10216000F3E080818160808386950C94AC1080912F
:10217000050380FD0C9429100C94AF1060E00C94C2
:1021800057108091D00181112EC00E94CD21811164
:1021900004C00E9480220E94A70C0E94910C6093B0
:1021A00005037093060380930703909308036E7FE3
:1021B00061F40E94A70C0E94910C60930503709338
:1021C000060380930703909308030E947E0C1092ED
:1021D000D2018091050380FF03C086950E94BE1046
:1021E00081E08093D00108950F931F93CF93DF93E5
:1021F0008091D201882309F48CC08091D101E091B3
:102200000503E695E81BE093CC01823049F4F0E049
:10221000EE5AF44FE491CE2FD0E00AE31DE049C01E
:10222000863049F4F0E0E15BF44FE491CE2FD0E04A
:102230000EE41DE03EC0893051F4E695F0E0E45B29
:10224000F44FE491CE2FD0E008E81EE032C08F308A
:1022500051F4E695F0E0E75BF44FE491CE2FD0E047
:1022600003EC1EE026C0853149F4F0E0EA5BF44F50
:10227000E491CE2FD0E00FE31FE01BC0883181F046
:10228000833239F4E4E4FBE0C591D4910EE51DE01E
:1022900010C0843251F4C4EFD1E00AEE1FE009C04F
:1022A000C8EED3E001EB1FE004C0C0EDD7E00FE6BD
:1022B0001CE08091CD01882389F01092CD010E940D
:1022C000D4239E0120953095820F931F9093CB01CC
:1022D0008093CA011092CF011092CE018091CA0161
:1022E0009091CB010E94E0238C179D0790F0E09124
:1022F000CA01F091CB01CE0FDF1FD093CB01C09369
:10230000CA018AEC91E0F801DF91CF911F910F9102
:102310000994DF91CF911F910F910895882311F0B7
:10232000FA0101C0FB010994CF93DF93C82FD62F88
:102330000E94B60C8C1740F00E94B60C8D1720F44A
:10234000DF91CF910C949C108C2FDF91CF910C9446
:10235000AC100F931F93CF93FB01C281CC2309F4E0
:1023600063C08C010E941C218272F801E25CFC4572
:10237000E431F10508F059C0EA5AFF4F0C94E42FFC
:102380000E94B71006C049EA50E16CE970E10E9472
:102390008E11C0E04AC04CE950E169EA70E1F7CF24
:1023A00046E45EE069E37EE0F2CF49E35EE066E4A6
:1023B0007EE0EDCF44E65EE065E57EE0E8CF45E512
:1023C0005EE064E67EE0E3CF42E85EE063E77EE065
:1023D000DECF43E75EE062E87EE0D9CF4FEC5CE021
:1023E0006EEB7CE0D4CF4EEB5CE06FEC7CE0CFCFCB
:1023F00081E017C065E082E010C068E086E00DC0B3
:102400006EE089E00AC064E18FE007C067E185E122
:1024100004C088E106C062E289E10E949411B9CF4C
:1024200083E20E94AC10B5CFC1E08C2FCF911F91F9
:102430000F9108950E94CD21811102C00E94802237
:102440000E94082280934003282F269526952695E2
:1024500030E02630310524F0877088628093400395
:102460008091400380FF04C086958695869501C0C3
:1024700080E00C94291320914003822F8695869545
:102480008695482F50E04530510554F48F5F982FC2
:10249000990F990F990F822F8770892B8093400392
:1024A000809140038160809340030E940C228091C0
:1024B00040038695869586950C9429138091400358
:1024C000982F969596959695A1F0915E990F990FF4
:1024D000990F8770892B80934003887F91E009F4DE
:1024E00090E08091400390FB80F9809340030E942C
:1024F0000C22809140038695869586950C9429132D
:102500008091400380FD13C081608093400381303F
:1025100019F489E080934003809140030E940C22CB
:10252000809140038695869586950C94291308958D
:102530008091400380FF08C08E7F809340030E94FB
:102540000C2280E00C94291308958091400380FDB3
:102550000C9498120C94801290914003892F8695C8
:10256000869586958F5F8F719770863038F4880FC7
:10257000880F880F892B8093400302C090934003FB
:1025800080914003887F91E009F490E080914003BE
:1025900090FB80F9809340030E940C2280914003BD
:1025A0008695869586950C942913863008F085E0EB
:1025B000909140039770282F220F220F220F922B09
:1025C00090934003987F21E009F420E0909140032C
:1025D00020FB90F9909340030C9429130E94D5128C
:1025E000809140030C940C229C01FB018281882382
:1025F00049F12D3BFCE53F07C9F040F42B3BECE5EE
:102600003E0769F02C3B3C4561F008952F3B9CE56B
:10261000390791F070F0203C3C4589F0089585E041
:1026200001C080E00E94EE1280E008950E945E12D8
:10263000FBCF0E943B12F8CF0E94A512F5CF0E945B
:10264000AC12F2CF81E00895269A2E9808952E9824
:102650000895CF92DF92EF92FF92CF93C82F8630EA
:1026600050F4811109C0809180008F7D809380009B
:102670000E94271306C0C5E080918000806280938D
:1026800080002C2F30E0AFEFBFEF0E94EA2F25E053
:1026900030E040E050E00E94C22FC9012C3764E1D5
:1026A000360728F469E070E00E949A2F29C0DA0109
:1026B000C9018A50974DAF4FBF4F6627782F892F9A
:1026C0009A2F25EF38E241E050E00E94C22F6901C5
:1026D0007A01CA01B9010E947C2F9B01AC01C7019C
:1026E000B6010E947C2FBB27A92F982F872F009718
:1026F00021E0A207B10511F0BC0102C06FEF7FEF2E
:1027000070938B0060938A00CF91FF90EF90DF90E1
:10271000CF90089508950E94241382E28093800050
:1027200089E1809381008FEF9FEF909387008093E2
:1027300086000C941A125DB1E42FEF7021E030E0B6
:1027400001C0220FEA95EAF7352F322B3DB94295A9
:102750004F70E42FF0E032A1422F4095342342A184
:10276000242B4FB7F894FC01CB01880F991F680FF9
:10277000791F6E0F7F1FE617F70789F0819198E0A8
:102780002EB9000000C087FF3EB9880F000000C0CE
:1027900000C000C03EB900C09A9591F7ECCF4FBF82
:1027A00087EC90E00197F1F700C00000089542EC3B
:1027B0000C949B130F931F93CF93DF93C62FD42FAB
:1027C000122FFC0182818823C9F06093D5010E94F9
:1027D000D4239093D4018093D30180E28C0F88306E
:1027E00008F057C0C77081E001C0880FCA95EAF7AA
:1027F000DF91CF911F910F910C9481188091D50199
:10280000681330C08091D3019091D4010E94E023DD
:10281000883C910538F500E20D0FCD17B9F080E244
:102820008C0F883040F4C77081E001C0880FCA95D2
:10283000EAF70E948818083028F581E09D2F9770EC
:1028400001C0880F9A95EAF70E948118812F0E9493
:102850006E180830F0F4D77081E001C0880FDA9567
:10286000EAF70AC080E28C0F883098F4C77081E0E4
:1028700001C0880FCA95EAF7DF91CF911F910F91A0
:102880000C948818812FDF91CF911F910F910C9498
:102890006E18DF91CF911F910F9108959C01CB018C
:1028A000233F4CE53407F9F078F4283DFCE53F0779
:1028B000B9F0293D4CE5340711F1273D3C4531F590
:1028C00026E241EE61EE1EC0253FFCE53F0799F090
:1028D00070F0263F3C45D1F427E245EE66EE12C08B
:1028E00027E245EE0EC026E241EE60EE0BC027E285
:1028F00045EE64EE07C026E241EE62EE03C028E238
:1029000041E065EE0E94DA1380E00895FC018281C7
:10291000882319F01092D501089581E00895CF938E
:10292000DF93EC01FB018281882309F41FC1C230CF
:10293000FCE5DF0708F41BC1C6319CE5D90738F078
:102940009E012A5F3C452930310508F010C10E94E4
:10295000EA219093480380934703C031ECE5DE07FA
:1029600009F4C3C008F041C0C8308CE5D80709F4A9
:102970009AC0F0F4C430ECE5DE0709F487C068F4CF
:10298000C2308CE5D80709F477C0C330DC4509F0C4
:10299000E3C080914703826076C0C630ECE5DE0775
:1029A00009F46EC008F07BC08091470388606BC05B
:1029B000CC308CE5D80709F485C068F4CA30ECE562
:1029C000DE0709F474C008F079C00E94391B8091B9
:1029D0004703806858C0CE308CE5D80709F476C02C
:1029E00008F07FC0809147038BC0CB3FECE5DE074A
:1029F00009F44FC018F5C3318CE5D80709F47DC040
:102A000078F4C131ECE5DE0709F473C0C231DC456E
:102A100009F0A2C00E94391B809147038F7733C011
:102A2000C5318CE5D80709F472C008F486C0CA3FE6
:102A3000DC4509F091C0809148033EC0CF3FFCE5E2
:102A4000DF0709F45FC058F4CD3F9CE5D90709F4CE
:102A500044C008F43FC08091480382602DC0C1305B
:102A6000FDE5DF0709F475C008F45DC0C230DD453F
:102A700009F072C080E06EC080914703816003C09E
:102A80008091470380618093470366C0809147032C
:102A900011C0809148038260809348035DC080919B
:102AA00047038062F0CF809147038064ECCF809130
:102AB000470388608460E7CF8160EECF8091470351
:102AC0008E7FE1CF809147038D7FDDCF80914703DB
:102AD000877FD9CF8091480318C0809148038D7FAC
:102AE000DBCF809147038F7ECECF809147038F7DD0
:102AF000CACF809147038F7BC6CF80914703877FE2
:102B00008B7FC1CF809148038D7F8E7FC5CF809111
:102B1000470382FB222720F991E0922790FB82F95C
:102B200090FB83F9B0CF80914803982F90959170D6
:102B30008E7F892B90FB81F9AFCF0E94391B80914A
:102B4000470387FB222720F991E0922790FB87F922
:102B50009ACF81E00E94822280914703909148039E
:102B60000E94FB210E94391B80E001C081E0DF91BF
:102B7000CF910895CF93DF9386319C4541F5EB01CA
:102B80000E941C21982F8A812091100130911101FF
:102B9000882379F09A7A81E009F480E08093D60165
:102BA000911102C069E201C065E3C9010E941D23C1
:102BB0000AC08091D601811102C069E201C065E3BB
:102BC000C9010E9428230E946A2180E001C081E09F
:102BD000DF91CF9108959093DC018093DB010895FC
:102BE000E091DB01F091DC01309721F00190F08160
:102BF000E02D099480E00895E091DB01F091DC0183
:102C0000309799F020912401222359F02091470315
:102C100027FF07C0DC012C9111962C93119725E01A
:102C20002C930280F381E02D09940895E091DB015B
:102C3000F091DC01309739F022E0DC012C93048024
:102C4000F581E02D099408952091D9013091DA01A0
:102C50002817390771F09093DA018093D901E09138
:102C6000DB01F091DC01309721F00680F781E02D47
:102C7000099408952091D7013091D8012817390778
:102C800071F09093D8018093D701E091DB01F0912E
:102C9000DC01309721F00084F185E02D099408953E
:102CA00085B7806885BF85B7806885BF089508951A
:102CB0000C9457160C9458160C9457160C945716DF
:102CC0000E9450160E945C160C945A1681E00895DA
:102CD0000E94CB230E94A70A0E94A0240E941A12DD
:102CE0000E94C1100C945E167F928F929F92AF92B9
:102CF000BF92CF92DF92EF92FF920F931F93CF93E9
:102D0000DF93CDB7DEB72A970FB6F894DEBF0FBEBC
:102D1000CDBF0E94F90A0E946616811111C08FEF83
:102D200089838A831B820E94D4238160782F9D83AC
:102D30008C8349815A816B818D810E9428174FC0F5
:102D40004EEDA42E41E0B42E00E010E0702E802F56
:102D50000E94900A6C01F501819091905F01882694
:102D600099268114910431F40F5F1F4F0C30110527
:102D700069F7D5CF8091A20281FD0E94990A80E077
:102D8000EE24E394F12C94012E213F21232B09F111
:102D90008E837F82CE20DF2081E0CD2809F480E081
:102DA00088870E94D4238160782F9A8789874E81F3
:102DB0005F8168858A850E942817000F111FF8011E
:102DC000E252FE4F80819181E826F926F182E0826D
:102DD00006C08F5FEE0CFF1C8930A9F6C5CF0E949C
:102DE000F4100E948A130E9454270E94F0159091BB
:102DF000DD018917C9F00E94F0158093DD012A9644
:102E00000FB6F894DEBF0FBECDBFDF91CF911F91FB
:102E10000F91FF90EF90DF90CF90BF90AF909F9079
:102E20008F907F900C9421082A960FB6F894DEBFFD
:102E30000FBECDBFDF91CF911F910F91FF90EF900B
:102E4000DF90CF90BF90AF909F908F907F9008952C
:102E5000CF93DF93CDB7DEB72B970FB6F894DEBFD5
:102E60000FBECDBF4F83588769877A878B87DE0176
:102E7000119686E0FD0111928A95E9F785E0FE0141
:102E8000379601900D928A95E1F749815A816B81BD
:102E90007C818D819E810E94091E2B960FB6F8942D
:102EA000DEBF0FBECDBFDF91CF910895FC018081C1
:102EB00091810E94DD200895CF93882309F4A4C056
:102EC000C82F8238C1F40E94F01581FD9DC069E3CE
:102ED00080911001909111010E941D230E946A218E
:102EE0002FEF81EE94E0215080409040E1F700C048
:102EF000000069E319C0833801F50E94F01580FDD8
:102F000083C063E580911001909111010E941D23FF
:102F10000E946A212FEF81EE94E021508040904082
:102F2000E1F700C0000063E580911001909111016C
:102F30000E942823CF910C946A218438C1F40E9406
:102F4000F01582FD61C067E480911001909111013C
:102F50000E941D230E946A212FEF81EE94E02150F0
:102F600080409040E1F700C0000067E4DDCF8CEFC7
:102F70008C0F813AD0F46C2F809110019091110147
:102F80000E949D22882349F06C2F8091100190911E
:102F900011010E9428230E946A216C2F8091100148
:102FA000909111010E941D23C5CF80E28C0F8830C3
:102FB00048F4C77081E001C0880FCA95EAF70E9403
:102FC0001F21B8CFEBE5EC0FE33040F4F0E0E25422
:102FD000FE4F808190E0CF910C942416E8E5EC0F31
:102FE000E73150F4F0E0EE0FFF1FE057FE4F808115
:102FF0009181CF910C943A16C03F30F08C2F0E94F3
:103000005C26CF910C944927CF910895882309F429
:1030100064C0823879F40E94F01581FF5EC069E3D4
:1030200080911001909111010E941D230E946A213C
:1030300069E310C08338B1F40E94F01580FF4DC0E1
:1030400063E580911001909111010E941D230E945F
:103050006A2163E580911001909111010E9428235B
:103060000C946A21843879F40E94F01582FF35C0EF
:1030700067E480911001909111010E941D230E942C
:103080006A2167E4E7CF9CEF980F913A10F4682F1C
:10309000E1CF90E2980F983050F4877091E001C032
:1030A000990F8A95EAF7892F0E942521D9CF9BE5B0
:1030B000980F933020F480E090E00C94241698E56B
:1030C000980F973120F480E090E00C943A16803FFE
:1030D00020F00E94C4260C9449270895CF93C82F4E
:1030E0000E945C17C93349F42FEF87EE93E021501B
:1030F00080409040E1F700C000008C2FCF910C94ED
:103100000618882321F00E941F210C946A2108953B
:10311000882321F00E9425210C946A210895CF92E2
:10312000DF92EF92FF920F931F93CF93DF937C0177
:10313000062FC72FFC01158112951F70D281D11166
:103140000E943C210E941521882379F0DD2369F03B
:1031500080E2800F883048F082E00E94B4210E9413
:10316000152191E0D82ED92601C0D12CCC2EC294A5
:103170008FE0C8228C2D90E0FC01E659FF4F0C94A3
:10318000E42F8C2F807FCF70882311F0C295C07FF1
:10319000DD2399F0CC2309F4C4C180E2800F88308C
:1031A00010F0011104C08C2F0E941F2103C08C2F2E
:1031B0000E942F210E946A21B4C1802F0E9406180C
:1031C000CC2309F4D3C180E2800F883010F00111C4
:1031D00004C08C2F0E94252103C08C2F0E94352112
:1031E0000E946A21C3C18C2F807FCF70803211F082
:1031F000C295C07F002319F00130C9F022C0DD2341
:1032000071F0112341F0113031F40E944F218C2BC9
:103210000E945721ABC10E944F218C2B1DC011234E
:1032200019F0113009F4A2C10E94602125C0DD23EC
:1032300021F0163008F09AC10EC0153008F096C182
:103240001BC0DD2361F0112331F0F701858180FF80
:1032500068C18F7085838C2F0E94811887C11123CC
:1032600059F0093309F06EC1FFEF27EE83E0F1500A
:1032700020408040E1F764C18C2F0E94881876C1FD
:103280008C2F86958695837019F0813061F06EC120
:10329000DD2321F0802F9C2F937002C080E090E00E
:1032A0000E9424166BC1DD2321F0802F9C2F937088
:1032B00002C080E090E00E943A1660C1DD23F9F080
:1032C000053F51F0063F71F0043FA9F4809141039E
:1032D0009091420381600BC0809141039091420321
:1032E000826005C080914103909142038460909375
:1032F000420380934103802F0E945C261EC0053F3D
:1033000051F0063F71F0043FA9F480914103909180
:1033100042038E7F0BC080914103909142038D7FC9
:1033200005C080914103909142038B7F90934203AB
:1033300080934103802F0E94C4260E9449271EC10A
:103340008C2F837009F045C0D11114C1402F4295D4
:1033500046954770440F440F602F6F70862F90E0A2
:10336000A0E0B0E0042E04C0880F991FAA1FBB1F65
:103370000A94D2F704FF10C00FE010E020E030E024
:1033800004C0000F111F221F331F4A95D2F700956A
:1033900010952095309503C000E010E09801C69587
:1033A000C695C370BC01CD01602B712B822B932B72
:1033B000C23049F058F4C13019F00E945A1FDAC0E7
:1033C0000E94481FD7C00E946C1FD4C00E94461F95
:1033D000D1C0DD2319F08C2F817001C08695882320
:1033E00009F4C8C0402F429546954770440F440FDA
:1033F000602F6F70862F90E0A0E0B0E0042E04C034
:10340000880F991FAA1FBB1F0A94D2F704FF10C090
:103410000FE010E020E030E004C0000F111F221F79
:10342000331F4A95D2F7009510952095309503C02B
:1034300000E010E09801C695C695C370BC01CD01AF
:10344000602B712B822B932BC23049F058F4C13082
:1034500019F00E941F208EC00E940D208BC00E9478
:10346000312088C00E94801F85C0CF70DD2339F0D5
:103470008C2F0E94A61F802F0E9481187BC0802F56
:103480000E9488188C2F0E94C71F74C0023F01F150
:1034900028F4003F41F0013FA1F03FC0033FF9F0A5
:1034A000043F39F13AC0DD2341F0153008F05EC029
:1034B0008C2F8F710E94EC1F59C0163008F056C037
:1034C000F7CFDD2339F08C2F8F710E94A61F4EC0DD
:1034D000DD23C9F38C2F8F710E94C71F47C0DD23E6
:1034E00029F08C2F8F710E94911F40C00E948C1F69
:1034F0003DC0DD2349F0CF718C2F0E94A61F63E0F1
:103500008C2F0E949F2132C081E00E94B421123092
:1035100068F182E00E94B42129C0DD2331F011233B
:1035200091F2802F0E945C1721C0112399F2093378
:1035300049F49FEFE7EEF3E09150E040F040E1F70F
:1035400000C00000802F0E94061810C04C2F4F7042
:10355000602FC7010E9482080E94B71E0FC04C2F27
:103560004F70602FC7010E94850808C088EF8C0D3E
:10357000843020F40E94F0150E942108DD20C9F05B
:103580000E94112180FD15C0F70112820E940B21BB
:103590000E94A61FC7010E94FA1A0E940B21DF9108
:1035A000CF911F910F91FF90EF90DF90CF900C94EF
:1035B000C71FDF91CF911F910F91FF90EF90DF9088
:1035C000CF9008950F931F93CF93DF93EC01688101
:1035D00079818A810E94E8208C010E9443200E9408
:1035E000341FB801CE010E948F18DF91CF911F9137
:1035F0000F910895CF93DF93FC0190818181238106
:103600003481232B31F08F3F31F481E09F3F19F457
:1036100003C081E001C080E080FD0EC0EF01CF015A
:103620000E943A08882341F0CE010E94E21ACE019E
:10363000DF91CF910C940608DF91CF9108950E94FD
:103640003C210E944C210E946A210E9473280E9402
:10365000492780E090E00E94241680E090E00C94DE
:103660003A1680911001909111010E9433230C941D
:103670001F1B0E942C210C94311BE92FE295EF7047
:103680004E2F50E0FA013297EE30F105B0F4E658D3
:10369000FF4F0C94E42F803F91F018F4883E68F4BB
:1036A0000EC0843F51F40BC0883E48F0813F29F49E
:1036B00006C093FB882780F9089580E0089581E093
:1036C00008950E94DD200E943D1B0895CF93DF9353
:1036D00000D000D01F92CDB7DEB70F900F900F90A3
:1036E0000F900F90DF91CF910895CF93DF9300D08B
:1036F00000D000D0CDB7DEB726960FB6F894DEBF67
:103700000FBECDBFDF91CF9108951F93CF93DF936D
:10371000C091F70116E08091F801C81799F0D0E048
:103720001C9FF0011D9FF00D1124E750FE4F4081BA
:10373000518162817381848195810E94751B2196DC
:10374000C770E9CFDF91CF911F9108954091290271
:1037500050912A0260912B0270912C0280912D02CF
:1037600090912E020C94751BCF9380912E0282951E
:103770008F7009F05FC080912B02882309F45AC032
:103780008091F701B091F80170912902A0912A026D
:1037900040912C0250912D0291E07F3F09F090E082
:1037A000692FC6E08B1709F445C04115510521F07A
:1037B000AF3F21F020E003C021E001C0262F90E0C0
:1037C00020FD35C0C89FF001C99FF00D1124E750BE
:1037D000FE4F21812A132BC02081271328C022816C
:1037E000211125C0238134812417350710F421507D
:1037F0003109241B350B283C3105C8F420912E02D9
:103800002F70206120932E0226E0289FF001299F2F
:10381000F00D1124E250FE4F80818F708061808313
:1038200089E292E00E94FA1ACF910C94851B0196CE
:103830008770B8CFCF910895AF92BF92CF92DF92A9
:10384000EF92FF920F931F93CF93DF93CDB7DEB725
:1038500061970FB6F894DEBF0FBECDBF8C0185E037
:10386000F801DE011D9601900D928A95E1F7D801CD
:103870004C9111965C9111971296EC90309129021F
:1038800060912A0280912C0290912D02009731F0D4
:103890006F3F31F421E03F3F19F403C021E001C044
:1038A00020E0B22FB170BB2E20FD60C1F801C380B3
:1038B000D480A0902B02AA2009F4EEC020912E0201
:1038C000C816D90628F0D601A81BB90BCD0104C033
:1038D000809590958C0D9D1DFF24F394883C910557
:1038E00080F0F12C207F09F09CC07C2DD98AC88AF9
:1038F0006E2D89890E94661B89E292E00E94FA1A65
:103900002DC1822F807F09F054C0561314C0431379
:1039100012C0FE2CE1100FC02F70206120932E02E8
:103920000E94A61B89E292E00E94FA1A80912E0260
:10393000F80185835CC1CD2831F05F3F31F481E02F
:103940004F3F19F403C081E001C080E080FD03C057
:1039500081E08E2502C080E090E0F82FF170FF2E0C
:1039600080FF1CC08091F7012091F80136E082179A
:1039700009F41AC190E0389FF001399FF00D11242D
:10398000E750FE4F6181561306C06081461303C0A5
:103990006281E61203C001968770E9CFFE2CEE200B
:1039A00009F425C180912E02816080932E02F12CB2
:1039B0001EC1561309C0431307C0E11005C0809112
:1039C0002E02F8018583A4C04D875E878D859E8574
:1039D0000E94611B882379F1EE2069F120912E026B
:1039E000822F82958F7090E0029774F08091290267
:1039F00090912A0298878F831986DB86CA862C8746
:103A0000CE0107960E94FA1A86E0F801A9E2B2E018
:103A100001900D928A95E1F70E94B41B0E94A61BAB
:103A20000DC0561771F04D875E878D859E850E946B
:103A3000611B81111AC0C8010E94FA1AFF24F39475
:103A4000D6C04313F0CFE110EECF80912E02F801E3
:103A50008583C8010E94FA1A86E0E9E2F2E0DF01FC
:103A60001D928A95E9F7FA2CC2C0EE2021F320912D
:103A70002E02822F82958F7090E002972CF2809117
:103A8000290290912A029A8389831B82DD82CC824B
:103A90002E83CE010196B6CFC816D90628F0F601BE
:103AA000E81BF90BCF0104C0809590958C0D9D1DEE
:103AB000883C910548F0F12C7C2DD98AC88A6E2D5E
:103AC00089890E94661B4AC0FE2CEE2009F4B3CF00
:103AD000561333C0431331C020912E0220FD24C061
:103AE000822F82958F70482F50E041155105E1F0EB
:103AF000D80115962C9315974F30510549F08F5FDB
:103B0000982F9295907F822F8F70892B15968C938A
:103B1000C8010E94FA1A86E0F801A9E2B2E0019019
:103B20000D928A95E1F73DC086E0F801A9E2B2E086
:103B300001900D928A95E1F75AC04D875E878D8579
:103B40009E850E94611B81115FCF80912E02816052
:103B500080932E02C8010E94FA1A49C0E9E2F2E0FD
:103B600086E0DF011D928A95E9F71BC0EE2009F47B
:103B700062CF4D875E878D859E850E94611BF82EE2
:103B8000882309F458CF86E0F801A9E2B2E0019059
:103B90000D928A95E1F789E292E00E9456170E9401
:103BA000B41B0E94A61B23C04D875E878D859E8512
:103BB0000E94DD20292F22952F70223028F49F703B
:103BC00039F0811105C00BC0243028F49F7049F4EE
:103BD000805E883020F0C8010E94FA1ABF2CFB2CAE
:103BE00006C0D80115969C91907F91F7F8CF8F2D44
:103BF00061960FB6F894DEBF0FBECDBFDF91CF91B7
:103C00001F910F91FF90EF90DF90CF90BF90AF90FA
:103C100008951F93CF93DF93CDB7DEB72C970FB6E0
:103C2000F894DEBF0FBECDBF4F83588769877A8770
:103C30008B879C87CE0107960E941C1C8823D1F09D
:103C40009F8188852A853B85232B31F08F3F31F476
:103C500081E09F3F19F403C081E001C080E080FD56
:103C600047C04F81588569857A858B859C850E94E0
:103C7000751B3EC086E0FE013796DE01119601906D
:103C80000D928A95E1F7FF81E8856A857B8561154C
:103C9000710531F0EF3F31F481E0FF3F19F403C0CB
:103CA00081E001C080E080FD23C02091F80130E078
:103CB000C9010196877099274091F70150E0841758
:103CC0009507F1F1F983EA837D836C8396E0929FF7
:103CD000D001939FB00D1124A750BE4FFE01319625
:103CE00001900D929A95E1F78093F8010E94851B4F
:103CF00016E08091F7019091F801891771F1189FF2
:103D0000C001112487509E4F0E941C1C882329F15A
:103D1000E091F7011E9FF0011124E750FE4F408112
:103D2000518162817381848195810E94751B80918C
:103D3000F70190E00196877099278093F701D9CF1A
:103D40000E94391B1092F8011092F701E9E2F2E0AB
:103D500086E0DF011D928A95E9F72C960FB6F8945C
:103D6000DEBF0FBECDBFDF91CF911F910895EF92BF
:103D7000FF920F931F93CF93DF938C01892B09F44C
:103D80006CC0F12CEE24E394E8012196F8018491B3
:103D9000843740F4843008F051C0813081F08230A3
:103DA00019F15BC0853709F444C0A8F19CE7980F6E
:103DB000903708F052C08F770E94061841C00E5FFE
:103DC0001F4FFE01849190E2980F983050F4877055
:103DD000FE2D01C0FF0F8A95EAF78F2F0E943F2129
:103DE00014C00E945C172DC00E5F1F4FFE0184910E
:103DF00090E2980F983060F48770FE2D01C0FF0F9D
:103E00008A95EAF78F2F0E9445210E946A2119C0E6
:103E10000E94061816C00E5F1F4FFE01C491CC23EE
:103E200081F08FE99FE00197F1F700C00000C150D9
:103E3000F6CF0E5F1F4FFE01F49003C00E945C1787
:103E40008E018F2D882309F49FCFEFE9FFE0319792
:103E5000F1F700C000008150F5CFDF91CF911F91A5
:103E60000F91FF90EF900895089508950C94351FD9
:103E70000C94361F0E94381F6093790270937A0267
:103E800080937B0290937C020C941F1B0C943A1F2E
:103E90000F931F930091790210917A0220917B0277
:103EA00030917C02602B712B822B932B1F910F91F1
:103EB0000C943A1F0F931F930091790210917A028C
:103EC00020917B0230917C02602371238223932313
:103ED0001F910F910C943A1F0F931F930091790239
:103EE00010917A0220917B0230917C026027712729
:103EF000822793271F910F910C943A1F0C94351F22
:103F00000E947E1F60937502709376028093770201
:103F1000909378020C941F1B60E070E0CB010C942E
:103F2000801F0F931F9341E050E060E070E08A0132
:103F30009B0104C0000F111F221F331F8A95D2F767
:103F4000C901B8011F910F910C94801F0F931F930B
:103F500041E050E060E070E004C0440F551F661F70
:103F6000771F8A95D2F78091750290917602A09181
:103F70007702B09178028A019B01082B192B2A2B1A
:103F80003B2BC901B8011F910F910C94801F0F9317
:103F90001F9341E050E060E070E004C0440F551F03
:103FA000661F771F8A95D2F740955095609570955A
:103FB0008091750290917602A0917702B09178027B
:103FC0008A019B01082319232A233B23C901B80135
:103FD0001F910F910C94801F0F931F9341E050E0AD
:103FE00060E070E004C0440F551F661F771F8A957C
:103FF000D2F78091750290917602A0917702B091EC
:1040000078028A019B01082719272A273B27C90123
:10401000B8011F910F910C94801F0F931F93009173
:104020007502109176022091770230917802602B10
:10403000712B822B932B1F910F910C94801F0F9348
:104040001F930091750210917602209177023091B2
:10405000780260237123822393231F910F910C9484
:10406000801F0F931F93009175021091760220918B
:1040700077023091780260277127822793271F915A
:104080000F910C94801F089529E0929F800D1124B8
:10409000E82FE695E695E695877051E001C0550F4B
:1040A0008A95EAF785E0E89FF0011124E15DFD4F74
:1040B00020E030E070E04081CB01022E02C09695F6
:1040C00087950A94E2F78170819584278523842758
:1040D00081932F5F3F4F2530310569F7089529E01F
:1040E000929F800D1124682F669566956695982F8E
:1040F000977085E0689FB001112440E050E080E0B7
:10410000FB01E40FF51FE15DFD4F208130E0092E3A
:1041100002C0369527950A94E2F721703327042EC2
:1041200001C0220F0A94EAF7822B4F5F5F4F4530A0
:10413000510531F70895BF92CF92DF92EF92FF922F
:104140000F931F93CF93DF938C01C0907502D09093
:104150007602E0907702F090780280917902909157
:104160007A02A0917B02B0917C02C82AD92AEA2A5D
:10417000FB2ACFE1D0E0D701C6010C2E04C0B695D2
:10418000A795979587950A94D2F780FD04C021974B
:1041900090F7B12C07C0BC2EB8018C2F0E94A1084B
:1041A0000197A9F38B2DDF91CF911F910F91FF9074
:1041B000EF90DF90CF90BF900895CF93DF93EC0105
:1041C0000E949B20BE010E94A108DF91CF9108951B
:1041D0001F93CF93DF93EB019091F601992321F088
:1041E000CB010E94DD2013C0882349F0CB010E943F
:1041F0009B20182F682FCE010E94442004C0CB01C1
:104200000E946F20182FBE01812F0E94A108DF910C
:10421000CF911F91089580917D0285958595859513
:10422000089580917D028770089590917D02977026
:1042300081E009F480E008958091A10208959091B1
:10424000A102892B8093A102089580959091A102EB
:1042500089238093A10208951092A102089590915C
:10426000A002892B8093A002089580959091A002CE
:1042700089238093A00208951092A002089590913E
:104280009F02892B80939F020895809590919F02B1
:10429000892380939F02089510929F020895809130
:1042A0007E02089508950C9452210C94532190910C
:1042B0007E02981721F080937E020C945521089578
:1042C00080917E02882329F010927E0280E00C9477
:1042D00055210895E0911001F09111018091A10202
:1042E0008083E0911001F091110190818091A002F2
:1042F000892B8083E0911001F091110190818091D0
:104300009F02892B808380917E02882381F0E09137
:104310001001F09111019081892B8083809110010F
:10432000909111010E94872281110E946021809149
:104330001001909111010C94FC150C94522198E0FD
:10434000899F90011124262B20937D020E94A61F95
:1043500080917D028595859585950C949D2110927F
:104360007D0280E00C949D2120917D028095822326
:1043700080937D02982F977079F430E0482F082EB3
:10438000000C550B2417350739F0859585958595D3
:104390000E94C71F0C94AF21089580E090E00E9416
:1043A0002B3021E08C3E9E4F09F020E0822F0895B3
:1043B00082E090E00C941D30682F82E090E00C9435
:1043C000313083E090E00C941D30682F83E090E062
:1043D0000C943130CF9384E090E00E941D30C82FC0
:1043E00081E290E00E941D302C2F30E0A901582B73
:1043F000CA01CF910895CF93C92F682F84E090E030
:104400000E9431306C2F81E290E0CF910C943130DA
:1044100086E090E00C941D30682F86E090E00C94CC
:104420003130AB01BC018FE090E00C944330AB0124
:10443000BC0183E190E00C94433060E070E0CB017C
:104440000C94172260E070E0CB010E9411220C94C2
:104450001D226CEE7EEF80E090E00E944F3060E025
:1044600082E090E00E94313060E083E090E00E94C2
:1044700031301092790210927A0210927B021092DF
:104480007C0260E084E090E00E94313060E081E2F4
:1044900090E00E94313060E085E090E00E94313091
:1044A00060E086E090E00E9431306FEF87E090E0BE
:1044B0000E94313040E050E0BA0188E090E00E9474
:1044C000433060E08DE090E00E94313040E050E009
:1044D000BA0188E190E00E94433060E087E190E01B
:1044E0000E94313040E050E0BA018CE190E00E943F
:1044F000433060E080E290E00E9431300C94222250
:104500000C942922682F8EE090E00C943130FC014D
:10451000329680912401882331F08091470387FFF0
:1045200002C09EE101C096E080E0915028F0219108
:104530002223D9F38F5FF9CF0895662351F120919B
:1045400024012223E9F02091470327FF19C0462FB9
:104550004695469546954E31E0F4677021E030E08F
:1045600002C0220F331F6A95E2F7FC01E40FF11D30
:10457000828190E02823392381E0232B69F409C04C
:10458000FC01329608962191621729F0E817F90785
:10459000D1F780E0089581E008959C01FC013296F6
:1045A0009FEF80E04191461789F09F3F19F4411138
:1045B00001C0982F8F5F8630A9F79F3F39F0F9012E
:1045C000E90FF11D97FDFA956283089508959C0106
:1045D0002A5F3F4FFC014281461301C012820196BF
:1045E00082179307B9F70895262F269526952695C5
:1045F0002E3168F4FC01E20FF11D677021E030E01C
:1046000001C0220F6A95EAF78281282B2283089540
:10461000262F2695269526952E3170F4FC01E20F63
:10462000F11D677021E030E001C0220F6A95EAF7C2
:10463000209582812823228308952091240122231A
:1046400029F02091470327FD0C94F4220C94CD22ED
:1046500020912401222329F02091470327FD0C9467
:1046600008230C94E72220912401FC013296222396
:1046700031F08091470387FF02C08EE101C086E0E0
:10468000DF011D928A95E9F7089508950C9445235A
:104690000C944523CF930E9448230E94F90A0E945C
:1046A0004623C0E08C2F0E94900A892B29F4CF5F0B
:1046B000CC30C1F780E001C081E0CF9108950C9427
:1046C00045230C945F230E94612380914D03843025
:1046D00061F11092A30220E488E190E00FB6F89413
:1046E000A895809360000FBE2093600080E00E9438
:1046F000291380E00E9421080E94612383B7817FF3
:10470000846083BF83B7816083BF7894889583B7C3
:104710008E7F83BF0FB6F894A89580916000886162
:1047200080936000109260000FBE08950C944523A2
:104730000E94391B0E941A120E94F0150E94210843
:104740000C9496231F920F920FB60F9211248F9301
:104750009F93AF93BF938091A302811113C0809167
:10476000430390914403A0914503B09146034196C1
:10477000A11DB11D8093430390934403A09345036F
:10478000B0934603BF91AF919F918F910F900FBE51
:104790000F901F90189582E084BD93E095BD9AEF2D
:1047A00097BD80936E0008952FB7F89480914303CE
:1047B00090914403A0914503B09146032FBF089503
:1047C000CF92DF92EF92FF920F931F932FB7F8943F
:1047D0004091430350914403609145037091460317
:1047E0002FBF6A017B01EE24FF248C0120E030E022
:1047F000C016D106E206F30610F4415051099A01A1
:10480000281B390BC9011F910F91FF90EF90DF908A
:10481000CF90089578941F920F920FB60F921124A3
:104820008F939F93AF93BF938091430390914403E1
:10483000A0914503B09146030196A11DB11D80933F
:10484000430390934403A0934503B0934603BF9161
:10485000AF919F918F910F900FBE0F901F90189561
:1048600081E08093E00080E28093D8001092C9003C
:104870008FE19EE40197F1F700C0000087E090EB24
:10488000DC018093560390935703A0935803B09391
:1048900059039CE088E10FB6F894A89580936000D6
:1048A0000FBE90936000FFCFAF92BF92CF92DF9286
:1048B000EF92FF920F931F93CF93C0E0CC24C39449
:1048C000D12CE82EF12C8C2F0E94900A5C0100E084
:1048D00010E0C601002E02C0880F991F0A94E2F76B
:1048E0008A219B21892B31F40F5F1F4F093011055D
:1048F00081F70AC0602F7C2F80E00E948608E816AE
:10490000F90691F781E004C0CF5FCC30E1F680E09A
:10491000CF911F910F91FF90EF90DF90CF90BF90BC
:10492000AF900895CF93C82F8CE20E94542488231F
:1049300021F08C2FCF910C94542480E0CF910895D6
:10494000CF930E94CD21811102C00E948022C5E632
:10495000C15049F00E94F90A8FE39CE90197F1F7F1
:1049600000C00000F5CF89E20E949224811120C18D
:104970008AE20E94922481110E94802285E00E9496
:10498000922481110E9430240E94D8218093A20297
:1049900087E00E9492248823A9F18BE10E9492244F
:1049A000882351F08091A20281FB222720F991E017
:1049B000922790FB81F90EC08EE00E9492248823FA
:1049C00061F08091A20282FB222720F991E09227D8
:1049D00090FB82F98093A20215C080E10E9492248C
:1049E0009091A202882341F093FB222720F981E0D5
:1049F000822780FB93F904C0892F809580FB90F972
:104A00009093A2028091A2020E94DC210E94EA21DE
:104A1000909348038093470380EE0E94922488235A
:104A200041F080914703982F909590FB80F98093F7
:104A3000470389E30E949224882359F08091470319
:104A400081FB222720F991E0922790FB81F9809346
:104A5000470382EE0E949224882359F080914703F5
:104A600082FB222720F991E0922790FB82F9809324
:104A7000470386EE0E949224882359F080914703D1
:104A800083FB222720F991E0922790FB83F9809302
:104A9000470383EE0E949224882359F080914703B4
:104AA00084FB222720F991E0922790FB84F98093E0
:104AB000470385E30E949224882359F0809147039D
:104AC00085FB222720F991E0922790FB85F98093BE
:104AD000470381E30E949224882359F08091470381
:104AE00086FB222720F991E0922790FB86F980939C
:104AF000470381E10E949224882359F08091470363
:104B000087FB222720F991E0922790FB87F9809379
:104B1000470380914703909148030E94FB2187E25D
:104B20000E949224C82F8EE10E9492248111C260BB
:104B30008FE10E9492248111C46080E20E9492243D
:104B40008111C86081E20E9492248111C06182E2D9
:104B50000E9492248111C06283E20E9492248111FA
:104B6000C06484E20E949224882311F0C06802C0CD
:104B7000CC2329F08C2F0E94E5216C2F03C00E94CA
:104B8000E121682F70E080E090E00E94461F8FE0F6
:104B90000E949224882319F081E00E94822285E1FC
:104BA0000E949224882321F080E0CF910C948222ED
:104BB000CF9108958091AB0280FF0BC060911701E7
:104BC00085E0689FB0011124759567957595679587
:104BD0002BC081FF09C06091170185E0689FB0017B
:104BE00011247595679520C082FF07C06091170159
:104BF00085E0689FB001112417C09091AA02992303
:104C0000D1F060911601961788F72091170185E081
:104C1000289F90011124929FA001939F500D112471
:104C200070E0CA010E94AE2F6038710540F4611532
:104C3000710519F406C065E070E0862F08958FE7CE
:104C4000089581E008958091AB0280FF08C06091D3
:104C5000130170E0759567957595679521C081FF83
:104C600006C06091130170E07595679519C082FFC9
:104C700004C06091130170E010C09091AA029923C2
:104C800099F0609112019617A0F780911301899F06
:104C9000C001112470E00E94AE2F6038710540F40D
:104CA0006115710519F406C061E070E0862F089562
:104CB0008FE7089581E00895803F21F40E94DA256E
:104CC000819504C0813F29F40E94DA258093AF02C8
:104CD0000895823F21F40E94DA25819504C0833F24
:104CE00029F40E94DA258093AE020895893F19F4D1
:104CF0000E94232605C08A3F31F40E942326819515
:104D00008093B00208958B3F21F40E942326819561
:104D100004C08C3F29F40E9423268093B102089599
:104D2000843F21F48091AD02816017C0853F21F45A
:104D30008091AD02826011C0863F21F48091AD0266
:104D400084600BC0873F21F48091AD02886005C06C
:104D5000883F31F48091AD0280618093AD02089567
:104D60008D3F21F48091AB0281600BC08E3F21F416
:104D70008091AB02826005C08F3F29F48091AB0225
:104D800084608093AB020895803F39F48091AF0234
:104D900087FF6CC01092AF0269C0813F29F48091F7
:104DA000AF021816BCF362C09091AE02823F29F4A4
:104DB00097FF5CC01092AE0259C0833F19F41916D8
:104DC000CCF354C0893F41F48091B00218160CF026
:104DD0004DC01092B0024AC08A3F29F48091B002BF
:104DE00087FF44C0F6CF8B3F39F48091B10287FF33
:104DF0003DC01092B1023AC08C3F29F48091B102BB
:104E00001816BCF333C0843F21F48091AD028E7F2D
:104E100017C0853F21F48091AD028D7F11C0863F80
:104E200021F48091AD028B7F0BC0873F21F48091EC
:104E3000AD02877F05C0883F31F48091AD028F7E3F
:104E40008093AD0213C08D3F21F48091AB028E7F21
:104E50000BC08E3F21F48091AB028D7F05C08F3F48
:104E600029F48091AB028B7F8093AB028091AE02DC
:104E700081110EC08091AF0281110AC08091B002F1
:104E8000811106C08091B102811102C01092AA0264
:104E900008958CEA92E00E9416160E94D423909303
:104EA000A9028093A8020895CF93DF9300D000D089
:104EB00000D0CDB7DEB786E0ECEAF2E0DE01119675
:104EC00001900D928A95E1F78091AE02811105C0A3
:104ED0008091AF02882309F47AC08091A602909154
:104EE000A7020E94E023AC019091AA02992339F015
:104EF0002091180130E02417350758F068C0209140
:104F000019018AE0289F900111242417350718F011
:104F10005EC09F3F19F09F5F9093AA021092B0026B
:104F20001092B1028091AE02181624F40E94DA2584
:104F30008093AE028091AE0287FF05C00E94DA2501
:104F400081958093AE028091AF02181624F40E94DE
:104F5000DA258093AF028091AF0287FF05C00E94DF
:104F6000DA2581958093AF023091AE023323E1F0D0
:104F70002091AF022223C1F045EB3403C00111247C
:104F8000992319F09093AE0203C081E08093AE02A2
:104F900035EB2303C0011124992319F09093AF023C
:104FA00003C081E08093AF020E9449278091A8024C
:104FB0009091A9029093A7028093A60286E0FE0139
:104FC0003196ACEAB2E001900D928A95E1F78091BA
:104FD000B002811105C08091B102882309F47AC022
:104FE0008091A4029091A5020E94E023AC019091CF
:104FF000AA02992339F02091140130E024173507D3
:1050000058F068C0209115018AE0289F9001112472
:105010002417350718F05EC09F3F19F09F5F9093EB
:10502000AA021092AE021092AF028091B00218163E
:1050300024F40E9423268093B0028091B00287FF5F
:1050400005C00E94232681958093B0028091B10211
:10505000181624F40E9423268093B1028091B10295
:1050600087FF05C00E94232681958093B10230916D
:10507000B0023323E1F02091B1022223C1F045EBCD
:105080003403C0011124992319F09093B00203C096
:1050900081E08093B00235EB2303C00111249923F2
:1050A00019F09093B10203C081E08093B1020E9495
:1050B00049278091A8029091A9029093A50280931C
:1050C000A40286E0FE013196ACEAB2E001900D92B6
:1050D0008A95E1F726960FB6F894DEBF0FBECDBFD6
:1050E000DF91CF910895ECEAF2E086E0DF011D92B6
:1050F0008A95E9F71092AA021092AB020895809166
:10510000D2020895CF93DF9300D01F92CDB7DEB7C0
:1051100090914D03943019F589837B836A8382E0F3
:105120008093E9008FEF9091E800815095FD06C0D3
:1051300095ED9A95F1F700008111F5CF8091E80087
:1051400085FF0DC040E050E063E070E0CE010196C5
:105150000E94DE2A8091E8008E778093E8000F900D
:105160000F900F90DF91CF910895CF93DF93EC01D3
:105170000E94C12A823011F0843031F4BE0184E0F3
:10518000DF91CF910C948228DF91CF910895BC01DB
:1051900083E00C948228CF93DF93EC010E94C12A14
:1051A000823011F08430F9F482E08093E9008FEFCF
:1051B0009091E800815095FD06C095ED9A95F1F724
:1051C00000008111F5CF8091E80085FF0CC040E020
:1051D00050E066E070E0CE010E94DE2A8091E80097
:1051E0008E778093E800DF91CF910895CF93DF937E
:1051F000EC010E94C12A823011F08430D9F58091EF
:105200002401882339F08091470387FF03C060E2BF
:1052100082E002C068E081E08093E9008FEF909126
:10522000E800815095FD06C095ED9A95F1F70000D4
:105230008111F5CF8091E80085FF1CC08091240189
:10524000811105C040E050E068E070E003C070E00C
:1052500040E050E0CE010E94DE2A8091E8008E7787
:105260008093E80080E2FE01A2EBB2E001900D9293
:105270008A95E1F7DF91CF91089580914C038111D8
:1052800009C00E946F2C0E94CC2C8091E2008460A7
:105290008093E200089510924C03089508950895B4
:1052A0000C94982342E061EC81E00E94E82B42E2FA
:1052B00061EC82E00C94E82B80914F03833009F479
:1052C00060C030F4813071F0823009F499C00895E3
:1052D0008A3009F485C08B3009F46BC0893009F03D
:1052E000A7C020C080914E03813A09F0A1C08091EF
:1052F000E800877F8093E8008091520390915303E8
:10530000892B21F460E282EB92E003C060E080E050
:1053100090E070E00E94292B8091E8008B778093C9
:10532000E800089580914E03813209F081C0809198
:10533000520390915303029708F07AC08091E800DD
:10534000877F8093E8008091E80082FD05C080910E
:105350004D038111F8CF6CC02091F3008091F200D1
:1053600090E0922B029729F48091F1008B7F81309D
:1053700021F48091F1008093D2028091E8008B7734
:1053800053C080914E03813A09F052C0809152037C
:1053900090915303892B09F04BC08091E800877FDF
:1053A0008093E8008091E80080FFFCCF8091240189
:1053B00036C080914E038132D9F58091520390918D
:1053C0005303892BA9F58091E800877F8093E8003B
:1053D0000E941D2C80915003809324010C94391B52
:1053E00080914E03813221F58091E800877F809380
:1053F000E8000E941D2C809151038093D3020895F0
:1054000080914E03813AA1F48091E800877F8093D8
:10541000E8008091E80080FFFCCF8091D302809368
:10542000F1008091E8008E778093E8000C941D2CA9
:10543000089584B7877F84BF0FB6F894A8958091AC
:105440006000886180936000109260000FBE90E061
:1054500080E80FB6F89480936100909361000FBECE
:105460000E9460160E946F2C0E94CC2C8091E2005A
:1054700084608093E20078940E94612F0E946816F5
:105480008AE191E00E94EB1580914D03853069F42B
:105490000E94632380914B038823B1F30E944A2327
:1054A000882391F30E94C82AEFCF0E947416ECCF94
:1054B0000C945A2A292F332723303105C9F060F480
:1054C0002130310581F02230310509F04AC08BE3EB
:1054D00090E025E83DE049C02132310511F122324A
:1054E000310579F13EC082E190E020EC3DE03DC025
:1054F00099278130910561F040F08230910559F093
:10550000039779F5EBE5FDE008C0E1E8FDE005C0B3
:10551000E5E7FDE002C0E1E6FDE0849190E09F0157
:1055200024C06115710541F061307105D1F489E045
:1055300090E020EB3DE019C089E090E027E93DE0F4
:1055400014C06115710541F06130710551F48CEBA7
:1055500090E022ED3DE009C080E490E02EE83EE0DE
:1055600004C080E090E020E030E0FA013183208345
:10557000089580914D03843011F081E0089582E018
:1055800008958091D402811102C00C94B92A089523
:1055900080E189BD82E189BD09B400FEFDCF809123
:1055A000D8008F7D8093D8008091E0008260809346
:1055B000E0008091E00081FDFCCF0895CF92DF9262
:1055C000EF92FF920F931F93CF93DF93EC018B0128
:1055D0007A010E943C2C811133C0E114F10439F0AE
:1055E000F70180819181081B190BC80FD91FC12CAD
:1055F000D12C0115110519F18091E80085FD16C027
:105600008091E8008E778093E800E114F10449F07E
:10561000F70180819181C80ED91ED182C08285E0B8
:105620000FC00E943C2C882321F30AC089918093EB
:10563000F10001501109FFEFCF1ADF0ADACF80E045
:10564000DF91CF911F910F91FF90EF90DF90CF905E
:10565000089520915403309155032617370748F0D9
:105660006115710539F42091E8002E772093E80048
:1056700001C0B901FC0120E06115710579F180914B
:105680004D038823F1F18530F1F18091E80083FD2D
:105690003CC08091E80082FD2EC08091E80080FF30
:1056A000EBCF2091F3008091F20090E0922B6115F6
:1056B000710551F08830910538F421912093F10063
:1056C000615071090196F3CF21E0089709F020E0BD
:1056D0008091E8008E778093E800CECF2111CFCF64
:1056E0000AC080914D03882361F0853061F080917C
:1056F000E80083FD0AC08091E80082FFF2CF80E0DD
:10570000089582E0089583E0089581E0089520914E
:105710005403309155032617370748F0611571057A
:1057200039F42091E8002E772093E80001C0B901F8
:10573000FC0120E06115710591F180914D038823F2
:1057400009F440C0853009F43FC08091E80083FD32
:105750003DC08091E80082FD2FC08091E80080FF6D
:10576000E9CF2091F3008091F20090E0922B611537
:10577000710559F08830910540F424912093F1008F
:105780003196615071090196F2CF21E0089709F036
:1057900020E08091E8008E778093E800CBCF211144
:1057A000CCCF0AC080914D03882361F0853061F031
:1057B0008091E80083FD0AC08091E80082FFF2CF6B
:1057C00080E0089582E0089583E0089581E00895DF
:1057D000982F973068F59093E900981739F07091F9
:1057E000EC002091ED005091F00003C0242F762FA3
:1057F00050E021FD02C09F5FECCF3091EB003E7F77
:105800003093EB003091ED003D7F3093ED0030910F
:10581000EB0031603093EB007093EC002093ED00CF
:105820005093F0002091EE0027FDE5CF80E0089531
:105830008F708093E90081E0089580914E0387FF87
:1058400011C08091E80082FD05C080914D03811157
:10585000F8CF11C08091E8008B770BC080914D0389
:10586000882349F08091E80080FFF8CF8091E8001C
:105870008E778093E80008952091E4003091E50050
:1058800095E64091EC00842F817040FF23C0809109
:10589000E80080FD1DC080914D03882399F085307C
:1058A00099F08091EB0085FD11C04091E40050918A
:1058B000E5002417350729F3915011F09A01E1CF43
:1058C00084E0089582E0089583E0089581E00895DA
:1058D00080E008954091E80042FFDDCF08950E94E6
:1058E000DD2C0E94E52CE0EEF0E080818160808379
:1058F000E8EDF0E080818F77808319BCA7EDB0E000
:105900008C918E7F8C9380818F7E808310924C034C
:1059100008950F931F93CF93DF930E94DD2C0E9475
:10592000E52CC8EDD0E088818F77888388818068F6
:10593000888388818F7D888319BC10924D031092D3
:10594000490310924B0310924A0300EE10E0F80155
:1059500080818B7F808388818160888342E060E0E2
:1059600080E00E94E82BE1EEF0E080818E7F808372
:10597000E2EEF0E0808181608083808188608083B6
:10598000F80180818E7F8083888180618883DF91A8
:10599000CF911F910F910895E8EDF0E080818F7E07
:1059A0008083E7EDF0E080818160808384E082BFC6
:1059B00081E080934C030C94892CE8EDF0E0808129
:1059C0008E7F80831092E20008951092DA00109288
:1059D000E10008951F920F920FB60F9211242F939A
:1059E0003F934F935F936F937F938F939F93AF9367
:1059F000BF93EF93FF938091E10082FF0BC08091F2
:105A0000E20082FF07C08091E1008B7F8093E1007C
:105A10000E94602F8091DA0080FF1FC08091D80023
:105A200080FF1BC08091DA008E7F8093DA00809126
:105A3000D90080FF0DC080E189BD82E189BD09B434
:105A400000FEFDCF81E080934D030E943D2905C0FB
:105A500019BC10924D030E944B298091E10080FFF8
:105A600019C08091E20080FF15C08091E2008E7F16
:105A70008093E2008091E20080618093E200809157
:105A8000D80080628093D80019BC85E080934D03D4
:105A90000E944F298091E10084FF30C08091E20094
:105AA00084FF2CC080E189BD82E189BD09B400FE7C
:105AB000FDCF8091D8008F7D8093D8008091E10048
:105AC0008F7E8093E1008091E2008F7E8093E200E0
:105AD0008091E20081608093E200809149038823F5
